:1000000071C000008FC000009DC00000CAC0000089
:1000100088C0000086C0000084C0000082C00000CC
:1000200080C000007EC000007CC000007AC00000DC
:1000300078C0000076C0000074C0000072C00000EC
:1000400070C000006EC000006CC000006AC00000FC
:1000500068C0000066C0000064C0000062C000000C
:1000600060C000005EC000005CC000005AC000001C
:1000700058C0000056C0000054C0000052C000002C
:1000800050C000004EC000004CC000004AC000003C
:1000900048C0000046C0000044C0000042C000004C
:1000A00040C000003EC000003CC000003AC000005C
:1000B00038C0000036C0000034C0000032C000006C
:1000C00030C000002EC000002CC000002AC000007C
:1000D00028C0000026C0000024C0000022C000008C
:1000E00020C0000011241FBECFEFD1E2DEBFCDBF84
:1000F00000E00CBF12E0A0E0B2E0ECE1F2E000E0D2
:100100000BBF02C007900D92A030B107D9F722E0D3
:10011000A0E0B2E001C01D92A330B207E1F770D0B9
:100120007BC06ECF1F920F920FB60F9211248F9348
:1001300081E08093020218958F910F900FBE0F906F
:100140001F9018951F920F920FB60F9211242F93A4
:100150008F939F938091000290910102019690935A
:100160000102809300028DB38C7F8DBB2FEF82E55F
:1001700097E0215080409040E1F700C000008CB330
:10018000882319F08CB383608CBB8DB383608DBBE7
:1001900018959F918F912F910F900FBE0F901F90E8
:1001A00018951F920F920FB60F9211242F938F93D1
:1001B0009F93809100029091010201969093010219
:1001C000809300028DB38C7F8DBB2FEF82E597E08B
:1001D000215080409040E1F700C000008CB388239C
:1001E00019F08CB383608CBB8DB383608DBB189585
:1001F0009F918F912F910F900FBE0F901F90189588
:100200008FE3809369008DB387608DBB7894809174
:0C02100002028823E1F3FFCFF894FFCF37
:040000050080020273
:00000001FF
