S01C000070726F6A656B745F62696C5F736F6674776172652E73726563A9
S113000072C0000092C10000CCC10000F2C1000027
S113001098C0000096C0000094C0000092C0000088
S113002090C000008EC000008CC000008AC0000098
S113003088C0000086C0000084C0000082C00000A8
S113004080C000007EC000007CC000007AC00000B8
S113005078C0000076C0000074C0000072C00000C8
S113006070C000006EC000006CC000006AC00000D8
S113007068C0000066C0000064C0000062C00000E8
S113008060C000005EC000005CC000005AC00000F8
S113009058C0000056C0000054C0000052C0000008
S11300A050C000004EC000004CC000004AC0000018
S11300B048C000009DC0000044C0000042C00000D1
S11300C040C000003EC000003CC000003AC0000038
S11300D038C0000036C0000034C0000032C0000048
S11300E030C000002D0211241FBECFEFD1E2DEBFCD
S11300F0CDBF00E00CBF12E0A0E0B2E0E8E4F6E01F
S113010000E00BBF02C007900D92A831B107D9F7E8
S113011022E0A8E1B2E001C01D92A432B207E1F7E7
S113012010E0C3E7D0E000E005C021970109802F6B
S1130130FE0180D2C237D10780E00807B1F781D130
S113014081C25ECFFC01118210820895FC0180817E
S113015091818C30910540F4880F991FFC01E05087
S1130160FE4F8081918108958FEF9FEF0895FC01E8
S1130170208131812F5F3F4F318320830895FC011B
S1130180208131812650310981E02230310508F483
S113019080E00895FC0180819181863091052CF0E6
S11301A00797049720F481E0089581E0089580E0A2
S11301B008950F931F93CF93DF93EC01C7DF8C0156
S11301C0CE01DDDF2A813B81021713072CF09C81CD
S11301D0891721F091E003C091E001C090E01B83F6
S11301E00A838C83892FDF91CF911F910F910895FA
S11301F01F920F920FB60F9211248F9310929B00AF
S113020010929A001092A10081E089BB10927200B2
S113021018958F910F900FBE0F901F901895FC01A9
S11302201082118283EA8093900082E0809391008F
S1130230109299001092980010929B0010929A00CC
S11302400895662349F01092990010929800109234
S11302509B0010929A0008951092990010929800B1
S113026010929B0010929A00089581E0809372008E
S11302708CE791EE9093A5008093A4001092A000C7
S113028085E08093A10010929B0010929A0008953B
S1130290019781F46F3F7F4F69F48EE192E052DF62
S11302A06FE08DE192E04ED18AE192E0DCD088E10A
S11302B092E0B5CF08958EE192E059DF61E08DE1DF
S11302C092E008D18EE192E05ADF682F8AE192E051
S11302D0F7D08EE192E03ADFBC018AE192E0E1D00E
S11302E08EE192E057DF682F88E192E0AADF8EE189
S11302F092E05FDF882319F088E192E0B6DF8DB3E6
S11303008C7F8DBB2FEF82E597E021508040904099
S1130310E1F700C000008CB3882319F08CB383602C
S11303208CBB8DB383608DBB08951F920F920FB663
S11303300F9211240BB60F922F933F934F935F9319
S11303406F937F938F939F93AF93BF93EF93FF9399
S113035081E08093230261E08DE192E0BBD08EE1E5
S113036092E018DF682F88E192E06BDF8EE192E083
S1130370EDDEBC018AE192E094D01895FF91EF91F3
S1130380BF91AF919F918F917F916F915F914F91A9
S11303903F912F910F900BBE0F900FBE0F901F90A7
S11303A018951F920F920FB60F9211240BB60F924D
S11303B02F933F934F935F936F937F938F939F9369
S11303C0AF93BF93EF93FF9376DF1895FF91EF916F
S11303D0BF91AF919F918F917F916F915F914F9159
S11303E03F912F910F900BBE0F900FBE0F901F9057
S11303F018951F920F920FB60F9211240BB60F92FD
S11304002F933F934F935F936F937F938F939F9318
S1130410AF93BF93EF93FF934EDF1895FF91EF9146
S1130420BF91AF919F918F917F916F915F914F9108
S11304303F912F910F900BBE0F900FBE0F901F9006
S113044018958FE3809369008DB387608DBB789492
S1130450809123028823E1F3FFCF6FEF7FEF81E0E8
S113046090E016CF0895FC011182108221E02283CE
S113047083EC8093800082E08093810040815181ED
S113048036EF3403C001359F900D11249C5F909387
S113049089008093880027B988B19281892B88B913
S11304A00895FC017183608326EF2603C001279F12
S11304B0900D11249C5F9093890080938800089587
S11304C0662321F088B1816088B9089588B18E7F50
S11304D088B90895CF93DF93C62F8EE782D083E047
S11304E080D080E07ED080E07CD08C2F7AD0D0E0A9
S11304F02396D195C195D1098D2F73D08C2F71D0AE
S11305008FEE6FD0DF91CF910895CF93DF93C62FF5
S11305108EE767D086E065D080E063D080E061D06C
S11305208C2F5FD0D0E02696D195C195D1098D2F1F
S113053058D08C2F56D085EF54D08FEE52D0DF9107
S1130540CF9108950F931F93CF938C01C62F48E04A
S113055060E875E280E090E00AD0CF3108F0CEE1A7
S11305606C2FC801D2DFCF911F910F9108950F9383
S11305701F938B019C010C52114021093109053D47
S1130580104C2140310550F5453040F1493030F5EB
S113059028E12093C1004550440F4093C200DC0180
S11305A0CB01880F991FAA1FBB1F880F991FAA1F71
S11305B0BB1F9C01AD01220F331F441F551F220F87
S11305C0331F441F551F60E074E284EF90E010D0A5
S11305D0215031093093C5002093C4001F910F911D
S11305E008959091C00095FFFCCF8093C6000895B4
S11305F0A1E21A2EAA1BBB1BFD010DC0AA1FBB1F23
S1130600EE1FFF1FA217B307E407F50720F0A21B94
S1130610B30BE40BF50B661F771F881F991F1A9401
S113062069F760957095809590959B01AC01BD012B
S1130630CF010895EE0FFF1F881F8BBF0790F6911F
S10B0640E02D1994F894FFCF9A
S113064864005A00410032005A003200320032007D
S10B06585000500032000000C4
S9030223D7
