S01C000070726F6A656B745F62696C5F736F6674776172652E73726563A9
S113000072C00000A7C00000B5C00000F2C000002C
S11300108BC0000089C0000087C0000085C00000BC
S113002083C0000081C000007FC000007DC00000CC
S11300307BC0000079C0000077C0000075C00000DC
S113004073C0000071C000006FC000006DC00000EC
S11300506BC0000069C0000067C0000065C00000FC
S113006063C0000061C000005FC000005DC000000C
S11300705BC0000059C0000057C0000055C000001C
S113008053C0000051C000004FC000004DC000002C
S11300904BC0000049C0000047C0000045C000003C
S11300A043C0000041C000003FC000003DC000004C
S11300B03BC0000039C0000037C0000035C000005C
S11300C033C0000031C000002FC000002DC000006C
S11300D02BC0000029C0000027C0000025C000007C
S11300E023C00000570111241FBECFEFD1E2DEBFB1
S11300F0CDBF00E00CBF22E0A0E0B2E001C01D9241
S1130100A630B207E1F710E0C3E7D0E000E005C095
S113011021970109802FFE01D0D0C237D10780E09A
S11301200807B1F7A5D0D1C06BCFFC0111821082B2
S11301300895FC01208131812F5F3F4F318320835B
S11301400895019731F46F3F7F4F19F480E092E0F6
S1130150ECCF08951F920F920FB60F9211248F9334
S113016081E08093050218958F910F900FBE0F9038
S11301701F9018951F920F920FB60F9211240BB671
S11301800F922F933F934F935F936F937F938F932C
S11301909F93AF93BF93EF93FF9380E092E0C9DF07
S11301A08DB38C7F8DBB2FEF82E597E0215080408B
S11301B09040E1F700C000008CB3882319F08CB3A1
S11301C083608CBB8DB383608DBB1895FF91EF91D9
S11301D0BF91AF919F918F917F916F915F914F915B
S11301E03F912F910F900BBE0F900FBE0F901F9059
S11301F018951F920F920FB60F9211240BB60F92FF
S11302002F933F934F935F936F937F938F939F931A
S1130210AF93BF93EF93FF9380E092E08ADF8DB3B7
S11302208C7F8DBB2FEF82E597E02150804090407A
S1130230E1F700C000008CB3882319F08CB383600D
S11302408CBB8DB383608DBB1895FF91EF91BF91EB
S1130250AF919F918F917F916F915F914F913F915A
S11302602F910F900BBE0F900FBE0F901F901895FB
S1130270CF93DF9300D01F921F92CDB7DEB7CE018C
S1130280019653DF85E0FE013196A0E0B2E00190D3
S11302900D928A95E1F78FE3809369008DB38760AF
S11302A08DBB7894809105028823E1F3FFCF6FEF33
S11302B07FEF81E090E045CF0895EE0FFF1F881F88
S11102C08BBF0790F691E02D1994F894FFCFB0
S9030205F5
