:1000000072C00000ABC00000B9C00000FAC0000020
:100010008BC0000089C0000087C0000085C00000C0
:1000200083C0000081C000007FC000007DC00000D0
:100030007BC0000079C0000077C0000075C00000E0
:1000400073C0000071C000006FC000006DC00000F0
:100050006BC0000069C0000067C0000065C0000000
:1000600063C0000061C000005FC000005DC0000010
:100070005BC0000059C0000057C0000055C0000020
:1000800053C0000051C000004FC000004DC0000030
:100090004BC0000049C0000047C0000045C0000040
:1000A00043C0000041C000003FC000003DC0000050
:1000B0003BC0000039C0000037C0000035C0000060
:1000C00033C0000031C000002FC000002DC0000070
:1000D0002BC0000029C0000027C0000025C0000080
:1000E00023C00000500111241FBECFEFD1E2DEBFBC
:1000F000CDBF00E00CBF22E0A0E0B2E001C01D9245
:10010000A730B207E1F710E0C3E7D0E000E005C098
:1001100021970109802FFE0179D1C237D10780E0F4
:100120000807B1F7B1D07AC16BCFFC011182108200
:100130000895FC01208131812F5F3F4F318320835F
:100140000895019751F46F3F7F4F39F481E092E0B9
:10015000ECDF6FE080E092E0E1C008951F920F9223
:100160000FB60F9211248F9381E0809306021895A9
:100170008F910F900FBE0F901F9018951F920F92A6
:100180000FB60F9211240BB60F922F933F934F93FC
:100190005F936F937F938F939F93AF93BF93EF93EF
:1001A000FF9381E092E0C5DF61E080E092E07ED0E5
:1001B0008DB38C7F8DBB2FEF82E597E0215080407F
:1001C0009040E1F700C000008CB3882319F08CB395
:1001D00083608CBB8DB383608DBB1895FF91EF91CD
:1001E000BF91AF919F918F917F916F915F914F914F
:1001F0003F912F910F900BBE0F900FBE0F901F904D
:1002000018951F920F920FB60F9211240BB60F92F2
:100210002F933F934F935F936F937F938F939F930E
:10022000AF93BF93EF93FF9381E092E082DF61E0B1
:1002300080E092E03BD08DB38C7F8DBB2FEF82E5C9
:1002400097E0215080409040E1F700C000008CB35F
:10025000882319F08CB383608CBB8DB383608DBB16
:100260001895FF91EF91BF91AF919F918F917F91E1
:100270006F915F914F913F912F910F900BBE0F9017
:100280000FBE0F901F9018958FE3809369008DB378
:1002900087608DBB7894809106028823E1F3FFCFBD
:1002A0006FEF7FEF81E090E04CCF0895CF93DF9325
:1002B000C62F8EE782D083E080D080E07ED080E0C1
:1002C0007CD08C2F7AD0D0E02396D195C195D109DE
:1002D0008D2F73D08C2F71D08FEE6FD0DF91CF9197
:1002E0000895CF93DF93C62F8EE767D086E065D061
:1002F00080E063D080E061D08C2F5FD0D0E0269684
:10030000D195C195D1098D2F58D08C2F56D085EF1E
:1003100054D08FEE52D0DF91CF9108950F931F9359
:10032000CF938C01C62F48E060E875E280E090E052
:100330000AD0CF3108F0CEE16C2FC801D2DFCF91C7
:100340001F910F9108950F931F938B019C010C52E5
:10035000114021093109053D104C2140310550F56E
:10036000453040F1493030F528E12093C100455037
:10037000440F4093C200DC01CB01880F991FAA1FD4
:10038000BB1F880F991FAA1FBB1F9C01AD01220F25
:10039000331F441F551F220F331F441F551F60E09A
:1003A00074E284EF90E010D0215031093093C50001
:1003B0002093C4001F910F9108959091C00095FF64
:1003C000FCCF8093C6000895A1E21A2EAA1BBB1B86
:1003D000FD010DC0AA1FBB1FEE1FFF1FA217B30711
:1003E000E407F50720F0A21BB30BE40BF50B661F27
:1003F000771F881F991F1A9469F7609570958095EB
:1004000090959B01AC01BD01CF010895EE0FFF1F38
:10041000881F8BBF0790F691E02D1994F894FFCFB9
:04000005008002066F
:00000001FF
